:0400000081315129D0
:100008007E14803120007F08F1002100111C142883
:100018002000111C14280130B2070030B33D111024
:100028002100111D43282000111D43280130B0076D
:100038000030B13D3308F00070082300A000200014
:100048003208F00070082300A10025001208F00013
:1000580070082300A20025001108F0007008230092
:10006800A30020003108F00070082300A40020003D
:100078003008F00070082300A500200011112100AD
:10008800121C72282000121C72280130AE070030A2
:10009800AF3D3308F00070082300B200200032089A
:1000A800F00070082300B30025001908F00070085C
:1000B8002300B40025001808F00070082300B500DC
:1000C80020002F08F00070082300B60020002E083A
:1000D800F00070082300B700200012102100131E42
:1000E800A1282000131EA1280130AC070030AD3D27
:1000F8003308F00070082300D00020003208F00018
:1001080070082300D10026001208F00070082300B0
:10011800D20026001108F00070082300D300200048
:100128002D08F00070082300D40020002C08F000EF
:1001380070082300D500200013122100931ED02838
:100148002000931ED0280130AA070030AB3D3308A9
:10015800F00070082300D60020003208F000700874
:100168002300D70026001908F00070082300D800E3
:1001780026001808F00070082300D90020002B087A
:10018800F00070082300DA0020002A08F000700848
:100198002300DB00200093122000911C06299110F7
:1001A8006A1EDC28EA157108F0007008F2006A126D
:1001B8000130B6070030B73D0130A8020030A93B36
:1001C80028082904031D06296430A8000030A90066
:1001D800771DF6281508C90020009E138B12771189
:1001E800F714FD28771CFD28771095010B118B1645
:1001F80077150130C1024108031D06290A30C100E4
:1002080020006A162100111E27292000111E272907
:1002180040087806031920297808403E86000130F6
:100228008700010823009A002000F80A203078028D
:10023800031C2729F8012729780820004006031DF8
:100248002729210011128B1A0B1D36290B112000AA
:10025800EA1E33292000B40A031DB50A36298B1279
:100268002000CA002100911E4C292000911E4C2913
:1002780020003F08BF0A203E860001308700230087
:10028800190881002000203020003F060319BF0113
:1002980071082000FF007E10090081315329F70101
:1002A800F8012000EA0120308400003085002E305B
:1002B8008C31FF248131A0308400003085004B3020
:1002C8008C31FF248131203084000130850040309A
:1002D8008C31FF247E1020008131722902302100E8
:1002E800950023008C018D01203020008C003F30C8
:1002F80024008C008B011D302100970020006A101B
:100308006400D6302000E4006408E600E8010B3001
:1003180068020318A62968088D31EC258131200070
:10032800E400660886008701640881000130E40063
:100338006408E6070130E4006408E8070B30680247
:10034800031C8F293F3021008C00DE308D002000F7
:100358000D10803022009D0001309E008230230065
:100368009E009D011E159F151E128A309B009C0140
:100378009E169D171D1621001112200091121112B0
:1003880023001F121F102000C001F801BF01BE0189
:100398008B170B17210091162700940195019601E0
:1003A8008B152000F001F1016A1107309C007D30A7
:1003B8009B009A0191106430A8000030A9000A300F
:1003C800E4006408C100210091140B178B17E33077
:1003D8009E0001309D0023008C018D012100111326
:1003E80020001113C230220097002000E9010A30D2
:1003F800690203180D2AEA14690882319E228131A4
:1004080001302000E4006408E9070A306902031C8F
:10041800FF29EA10073028009700553025009E0074
:10042800FF302800960095012100931020009310BA
:100438008C31F92481312000B901CB302000E5004E
:10044800EC30E4008430890B272AE40B272AE50BDB
:10045800272A00008D31852581318731D2278131C6
:1004680020006A1C640020006A1D0D106A1D4A2ABB
:100478002100111A9A2AE43000320032890B402AEE
:100488000032003220000D106A119A2A8D310D2594
:100498008131003A03199A2A8E31042681312000CD
:1004A800E4003908E13E86008701640881000130D4
:1004B800E4006408B90708303902031C9A2A083096
:1004C800E4006408B900E1308631F7268131200064
:1004D800E4006408E7006703031D772A8531FB25DC
:1004E800813120007B2A02306706031D7D2AB9016D
:1004F8009A2AE901E90A083069020318982A690862
:10050800E13E860087010108E4006908FF3EE13EFC
:1005180086008701640881000130E4006408E90767
:1005280008306902031C832A0130B9028731692720
:100538008131342A2000CF004F08D63E860087013B
:100548000108F6007608CE008D3185258231063007
:10055800F6007608F20020004F088D3151258231CF
:10056800A03E8600013087000030C03F0030C13F08
:10057800C23FC33F0630F6007608F20020004F085D
:100588008D3151258231043EA03E8600013087001E
:100598000030C03FC13F053020004F020318DF2A5A
:1005A8004F08003E840088300318013E850000088B
:1005B800F6007608F1054F08031DE62A2500930189
:1005C80021001111033020004F06031DEF2A2500DA
:1005D8009A0121001210083020004F06031DF82A46
:1005E8002600930121001312093020004F06031D35
:1005F800012B26009A0121009312053020004F029A
:100608000318122BF201F20A4F088F3104278231A6
:10061800F20120004F088F317A2782310430200000
:100628004E020318252B05304F020318202BF20128
:100638004F088F310427823120004F0886317D26EC
:100648000800063020004E06031D2E2B4F088F3160
:10065800A42708000C3020004E06031D572B4F0816
:10066800163E840088300318013E85001200031DE1
:10067800402BC201C20A08004F088731A1278231E6
:10068800053020004F0203184F2BF201F20A4F08E1
:100698008F31042782310030F200F30020004F0828
:1006A80085311A2508000D3020004E06031D802BC9
:1006B8004F08163E840088300318013E850012005A
:1006C800031D692BC201C20A08004F088731A12700
:1006D8008231053020004F020318772BF2014F08B2
:1006E8008F31042782310130F2000030F3002000FE
:1006F8004F0885311A250800043020004E06031DD6
:10070800932B05304F0203188E2BF2014F088F31BF
:100718000427823120004F088731A12708002000D4
:100728004F088731A1270800023020002606103024
:1007380003192706031DA32B8E31E026080020008D
:10074800260A031DB92B2703031DB92B783024066D
:10075800563003192506031DB42B2000EA14B62BC6
:100768002000EA108D31D5250800553020002606D6
:10077800AA3003192706031DD32B34302406123060
:1007880003192506031DCF2B6A1411302100970089
:100798008D31D525080002308D31BF250800013084
:1007A80020002702003003192602031C1D2C0130EB
:1007B80027020A300319260203181D2CEA1C1A2CDA
:1007C8002608DA005A08DC00C2015C08D63E86001A
:1007D80087010108DA005A08DB002408DA005C08FF
:1007E800D63E860087015A0881005C0882319E2225
:1007F8008331200042080319122C5B08DA005C08D8
:10080800D63E860087015A0881005C0882319E2204
:10081800833102308D31BF258331172C8D31D52599
:1008280083318E313B262000EA1408008D31D5250E
:100838000800A030200026062704031D302CEA1CDF
:100848002D2C2408DA005A082100E0008E313B26BE
:1008580083318D31D525080002308D31BF25080040
:100868002000DA0101302702003003192602031C98
:100878004A2C013027020B300319260203184A2C90
:100888002608D63E860087010108522CA03026068D
:100898002704031D582C210060082000D800D90126
:1008A8005808DB005908692CFA3026062704031D6E
:1008B800612C0130DB000130692CFB30260627044F
:1008C800031D6B2C3B30DB006530DC00A02CF030C6
:1008D80026062704031D942C1708D8005808DF00A3
:1008E8001608D8005808DD001708D8005808DE0098
:1008F8005F085E06031D702C5F08D800D9015808F0
:10090800DB005908DC000830DB35DC0D890B882C4E
:100918005D08D800D9015808DB045908DC04A02C6C
:10092800F13026062704031D9E2C3308DC0032080C
:10093800DB00A02CDA01DA0A5A080319A72C0230C6
:100948008D31BF25080020005C08D7005B08D60061
:100958008D31AB2508002000E101E201C201003021
:100968002702A030031926020318DD2C2708DF0010
:100978002608DE000430DF36DE0C890BBF2C5E084B
:10098800E0006008E30063088D3131258431003AC6
:100998000319D32C2000630885316A25080020003C
:1009A800630887313127843120005208E20051085A
:1009B800062D103027062604031DEA2C8D316225EA
:1009C800843120005208E2005108062D2603103019
:1009D80003192706031DF82C8D31222584312000A8
:1009E8005208E2005108062D02302606103003197D
:1009F8002706031D082D8F315127843176082000E2
:100A0800E2007508E1000A2DC201C20A200042086E
:100A18000319122D02308D31BF250800200062080D
:100A2800D7006108D6008D31AB250800F4007408A2
:100A3800031D2E2D720873040319242D0530252D4E
:100A48000430250093002000B001B10111112100EC
:100A58001115080003307406031D422D7208730433
:100A68000319382D0530392D043025009A0020004F
:100A7800AE01AF01121021001214080008307406EC
:100A8800031D562D7208730403194C2D05304D2D86
:100A98000430260093002000AC01AD0113122100A0
:100AA8001316080009307406031D08007208730441
:100AB8000319602D0530612D043026009A002000AE
:100AC800AA01AB0193122100931608002000DC0054
:100AD800DA01DD015C08D63E860087010108D800EE
:100AE8005808DB000C305B05D8000C305806031D95
:100AF8007F2D0630802D0430D8005808DD005D08B1
:100B0800031D8A2D02308D31BF2508008D31162531
:100B1800853120005D08D80058082100B80006304B
:100B28002000D8005808F2005C088D315125853125
:100B38002000D9005908DB0001308500A0305B0790
:100B4800840000308700B93086005D08DA008B1316
:100B580000081E00840ADA0BAC2D8B1720005D08F4
:100B6800033E8F31D02708002000CE00FF30D00090
:100B7800FF30D10072080319F62D4E088600870150
:100B880050080106D0005108D1000130F400740863
:100B9800CE070830F4007408CF004F080319F12D70
:100BA800501CE22D5108F5005008F400F536F40CFD
:100BB80001307406D000A0307506EB2D5108F50001
:100BC8005008F400F536F40C7408D0007508D1000C
:100BD8000130CF024F08031DD42D0130F2027208F4
:100BE800031DC12D5108F3005008F2000800200031
:100BF8003A080319052E2100600820003A06031D53
:100C08000800A0300032890B062E20003B03031D8C
:100C1800102E8D3198250800023020003B06031D58
:100C2800182E8D3198250800033020003B06031D3F
:100C3800202E843134240800043020003B06031D94
:100C4800282E8431AF240800053020003B06031D00
:100C5800302E8E311E260800063020003B06031D6C
:100C6800382E83319823080001308D31BF250800C4
:100C7800F60076080B3E840088300318013E850094
:100C88000008F3007308F4007608003E84008830FA
:100C98000318013E85000008F3007308F5000530CD
:100CA800760203186A2E7208031D622E8B137508CC
:100CB800F300730820008D058B1708008B13740848
:100CC800F300730820008D048B1708007208031DB9
:100CD800752E8B137508F300730820008C058B178D
:100CE80008008B137408F300730820008C048B171A
:100CF8000800F4007408D63E860087010108F20057
:100D08007208F30074080B3E840088300318013E13
:100D180085000008F2007208F50005307402031817
:100D2800A02E7508F200720821008D047508F200E3
:100D3800720823008D04AA2E7508F200720821009B
:100D48008C047508F200720823008C04220017082E
:100D58007306FC39730697007308031DB72EFC3021
:100D680021009E050800033021009E040800200091
:100D7800CE00210011132000111321001D141D1491
:100D880020004E08F400F40DF40D21001D0874062F
:100D9800833974069D000B30F4006230890BD22E23
:100DA800F40BD22E003221009D149D18D92E0B3041
:100DB800F4006230890BDE2EF40BDE2E00322100A7
:100DC8009D149D18E52E1C08F40074082000D0001E
:100DD80021001B08F40074082000CF005008F3001D
:100DE8004F08F2000800860087011600BA001600B6
:100DF800BB001600A7001600A6001600A5001600E6
:100E0800A4001600A2001600A3000630F60076081B
:100E1800F200E1308531B825863173082000D4000E
:100E28007208D30023085406031D1C2F22085306FA
:100E38000319202FD5012F2F2100600820003A0622
:100E4800031D3A08031D2B2FD501D50A2F2F023079
:100E5800F6007608D500550808002000D600C20123
:100E68005608D63E860087010108D3005308D500EE
:100E7800043055020318552F560886317D268731D0
:100E880020005608203E840088300318013E850063
:100E980000088631BB2673082000D2007208D100F2
:100EA8000800073055020318642F56088E3179263A
:100EB8002000D300D4015308D1005408D200080000
:100EC800FF30D100FF30D2000800633020004A060E
:100ED800031D9E2F4D08031D742F8D310525873165
:100EE80006302000CE004E08F2004B088D31512507
:100EF8008731A03E2000CF004F08F6004D0A031DA1
:100F08008E2F7608860001308700FF30C03FFF3003
:100F1800C13F9B2F760886000130870081014D086C
:100F2800CE00760A8600013087004E0881008F3196
:100F38002A2708008F312A270800F50075080B3E7C
:100F4800840088300318013E85000008F20072080A
:100F5800F3007508003E840088300318013E8500C0
:100F68000008F2007208F400053075020318C72F54
:100F78007308F200720821008D047408F2007208E8
:100F880023008D0508007308F200720821008C0404
:100F98007408F200720823008C0508000030210054
:100FA800A3000030A2000030A1000030A0000030F3
:100FB800A7000030A6000030A5000030A4000030D3
:100FC800AB000030AA000030A9000030A8000030B3
:100FD800AF000030AE000030AD000030AC002000A3
:100FE800B201B301970196019801991311102100DC
:100FF8001114200018140800F734FD34EF34BF34FE
:101008007F34FE34FD34FB34F734EF34FF340834D6
:101018000234103440348034013402340434083447
:101028001034003401340034003401340034003406
:10103800003400340134013409340B3408340534E5
:0C10480006340034013402340334043454
:1019F2008B132000BF01BE018B1708006400800119
:101A02000131890B002D00348B120B11FF302100A4
:101A1200B400FF30B500080020003F083E0603195D
:101A2200142D013008000030080021006008F20087
:101A32007208B60020003B08F20072082100B700CD
:101A42000800220097161712FC3021009E051D3057
:101A52008631BB2673082000D2007208D10008002C
:101A6200F3007308D63E860087010C300105F200B0
:101A72000C307206031D3F2D0130080000300800B3
:101A82002000F9008D3116258D3101302100B8007A
:101A9200200079082100B90004308F31D0270800D6
:101AA200F500F401751C592D7208F3007308F40750
:101AB2000310F20D0310F50C7508031D532D740865
:101AC200080022001708FC3902389700FC30210078
:101AD2009E051F308631BB2673082000D200720893
:101AE200D10008002000D0005008D63E86008701B1
:101AF20006300106031D08004E08CF004F08F20011
:101B0200500886313C260800F3010A30730203189C
:101B120008002000CA0121005608F20072082000C5
:101B2200CC00CB010130F2007208F307862D0030A1
:101B3200200027020A30031926020318A72D2608BF
:101B42008E315A268D318D314125080002308D317A
:101B5200BF2508002000D6008D3116258D310230B8
:101B62002100B800200057082100B90020005608C3
:101B72002100BA0005308F31D02708002000D7009D
:101B82008D3116258D3120003B088038D60056084D
:101B92002100B70020005708D60056082100B800DF
:101BA20003308F31D02708008D3116258D3120006A
:101BB20027082100B800200026082100B9002000D3
:101BC20025082100BA00200024082100BB000630AD
:101BD2008F31D0270800F500640023009518ED2D01
:101BE2007508F200F30172089100730892003F3009
:101BF200F400740895051514031015180314003029
:101C0200093D130808008D310D258E31003A031964
:101C1200042E20003E08203E860001308700010885
:101C2200F2007208F3000130F2007208BE072030A1
:101C32003E020318BE01730808000030200027028C
:101C42000A30031926020318372E24082504031923
:101C52002C2E01302D2E0030D8005808CE00260838
:101C62008D3173258E318D31D525080002308D31AD
:101C7200BF250800D630F60076082000CE00CF013E
:101C82000B304F02031808004E0886008701010836
:101C9200F6007608F2004F088E3199268E31013017
:101CA200F60076082000CE070130F6007608CF074E
:101CB200412EF400053074020318622E20000D0834
:101CC200642E20000C08F2007208F30074080B3E28
:101CD200840088300318013E85000008F200720873
:101CE200F30573080319772E01300800003008004D
:101CF200F40074080B3E840088300318013E85000E
:101D02000008F2007208F5000530740203188C2EE8
:101D120020000D088E2E20000C087505F2007208B6
:101D2200F3007308031D972E0030080001300800ED
:101D3200F500230095189A2E7508F300F401730834
:101D4200910074089200720893003F30F300730808
:101D52009505200003108B1B03148B13230015150C
:101D620055309600AA309600951415112000031CD8
:101D720008008B170800F3007308F20072082000B5
:101D8200BD074008013EF2007208F40020307402E0
:101D92000318F401740878060319CB2E7308F200B5
:101DA20020004008403E8600013087007208810012
:101DB2007408F2007208C000210011160800200009
:101DC2002508D8002408D700D9010A30590203187F
:101DD200012F57080139D6005608CE0059088D3117
:101DE20073258E3101302000D836D70C890BF52EA1
:101DF2000130D6005608D9070A305902031CEA2ED0
:101E02008D31D5250800F400053074020318262F01
:101E120072080319192F74080B3E840088300318C6
:101E2200013E85000008F300730824008D040800B9
:101E32007408003E840088300318013E85000008C3
:101E4200F300730824008D0508002000C201C20AB5
:101E520008002000C4010130F2007208CB070A30EA
:101E62004B020318CB014B08D63E860087010108BE
:101E7200F2007208CC00CA01CD01B601B7018B1283
:101E8200EA12F30106307302031808007308B03E29
:101E92008600870181010130F2007208F307432FA7
:101EA2002000D001D101D2010A3052020318752F4D
:101EB2000130D035D10D890B5A2F5208013EFF3A1D
:101EC200013E0A3E8E315A268F312000CE00CF01CC
:101ED2004E08D0044F08D1040130CE004E08D2077C
:101EE2000A305202031C592F5108F6005008F5001F
:101EF2000800F50005307502031808007208031D7A
:101F0200932F7508003E840088300318013E850037
:101F12000008F3007308F4008B137408270095057A
:101F22008B17080075080B3E840088300318013EA9
:101F320085000008F3007308F4008B13740827006F
:101F420095048B170800F5007508D63E86008701B8
:101F52000108F2007208F3007508003E8400883020
:101F62000318013E85000008F2007208F4000530F3
:101F720075020318C62F7408F200720820008D053E
:101F820021008D0523008D0508007408F2007208F7
:101F920020008C0521008C0523008C050800200000
:101FA200D2003A08031908005208F6007608F20037
:101FB200B6308531B8258F3173082000D4007208FD
:101FC200D3006A150D14D501520855020318F72FD4
:101FD2005508B63E8600870101088E31BC268F3136
:101FE2000130F60076082000D507E52F53088E3120
:0E1FF200BC268F31200054088E31BC2608001A
:020000040001F9
:04000E00FAEFFFFF07
:10E000000D00060006000D000600060006000600D2
:10E010000D000D007F00FF00FF00FF00FF00FF006C
:00000001FF
