:0400000081315729CA
:1000060008347E14803120007F08F1002100111C85
:1000160015282000111C15280130B0070030B13D0D
:10002600111052292100111D45282000111D4528B7
:100036000130AE070030AF3D3108F00070082300F4
:10004600A00020003008F00070082300A100250061
:100056001208F00070082300A20025001108F00025
:1000660070082300A30020002F08F000700823006A
:10007600A40020002E08F00070082300A500200030
:10008600111152292100121C75282000121C7528F6
:100096000130AC070030AD3D3108F0007008230098
:1000A600B20020003008F00070082300B3002500DD
:1000B6001908F00070082300B40025001808F000A5
:1000C60070082300B50020002D08F00070082300FA
:1000D600B60020002C08F00070082300B7002000AE
:1000E600121052292100131EA5282000131EA52830
:1000F6000130AA070030AB3D3108F000700823003C
:10010600D00020003008F00070082300D10026003F
:100116001208F00070082300D20026001108F00033
:1001260070082300D30020002B08F000700823007D
:10013600D40020002A08F00070082300D500200013
:10014600131252292100931ED5282000931ED5286C
:100156000130A8070030A93D3108F00070082300DF
:10016600D60020003008F00070082300D7002600D3
:100176001908F00070082300D80026001808F000BF
:1001860070082300D90020002908F0007008230019
:10019600DA0020002808F00070082300DB002000A9
:1001A600931252292000911C0B2991106C1EE128F4
:1001B600EC157108F0007008F2006C120130B207FD
:1001C6000030B33D0130A6020030A73B26082704C5
:1001D600031D0B296430A6000030A700771DFB28FD
:1001E6001508C50020009E138B127711F7140229FB
:1001F600771C0229771095010B118B1677150130A4
:10020600BD023D08031D0B290A30BD0020006C16F7
:100216002100111E2C292000111E2C293C087806CD
:10022600031925297808403E860001308700010819
:1002360023009A002000F80A20307802031C2C299B
:10024600F8012C29780820003C06031D2C292100E2
:1002560011128B1A0B1D3C290B112000EC1E39299B
:1002660001302100B6070030B73D3C298B12200033
:10027600C6002100911E52292000911E52292000FD
:100286003B08BB0A203E8600013087002300190880
:1002960081002000203020003B060319BB017108B5
:1002A6002000FF007E10090081315929803103208A
:1002B6008131ED00F701F801EC01203084000030B7
:1002C60085002A308B31DF238131A0308400003055
:1002D60085004E308B31DF238131203084000130A0
:1002E600850040308B31DF237E1020008231BC2A0E
:1002F600023020002406103003192506031D862926
:100306008D31AE2508002000240A031D9C292503F3
:10031600031D9C2978302206563003192306031D37
:1003260097292000EC1499292000EC108C31A32485
:100336000800553020002406AA3003192506031D9F
:10034600B62934302206123003192306031DB229BA
:100356006C141130210097008C31A3240800023060
:100366008C318D240800013020002502003003194D
:100376002402031C002A013025020A300319240234
:100386000318002AEC1CFD292408D6005608D800BC
:10039600BE015808D83E860087010108D6005608D7
:1003A600D7002208D6005808D83E8600870156088E
:1003B600810058088331EE23813120003E0803195D
:1003C600F5295708D6005808D83E860087015608F2
:1003D600810058088331EE23813102308C318D241F
:1003E6008131FA298C31A32481318D3109252000F0
:1003F600EC1408008C31A3240800003020002502EC
:100406000A300319240203187F2A2408D83E8600DE
:1004160087010108D6005608D7000C305705D600CC
:100426000C305606031D7B2A0630D6005608F2000D
:1004360024088C3131248131A03E860001308700AA
:10044600810106302000D6005608F20024088C31BF
:1004560031248131013EA03E8600013087008101B2
:1004660006302000D6005608F20024088C313124CC
:100476008131023EA03E86000130870081010630B0
:100486002000D6005608F20024088C313124813130
:10049600033EA03E86000130870081010630200021
:1004A600D6005608F20024088C3131248131043EEE
:1004B600A03E860001308700810106302000D6006C
:1004C6005608F20024088C3131248131053EA03EC5
:1004D60086000130870081012000AE01AF01AC012A
:1004E600AD01AA01AB01A801A9018C31A324080022
:1004F60001308C318D240800A0302000240625040C
:10050600031D922AEC1C8F2A2208D60056082100C9
:10051600E2008D31092581318C31A3240800F030A9
:10052600200024062504031DA32A8B131810970107
:100536009601B001B10118148B178C31A324080061
:10054600F230200024062504031DB82A22088E3125
:100556001F2681312000EC1CB52A2208D600560839
:100566002100E3008C31A324080002308C318D2455
:10057600080002302100950023008C018D012030F7
:1005860020008C003F3024008C008B011D302100A0
:10059600970020006C106400D8302000E600660842
:1005A600E800EA010C306A020318F02A6A088C3166
:1005B600BA2482312000E6006808860087016608B2
:1005C60081000130E6006608E8070130E6006608AB
:1005D600EA070C306A02031CD92A210063082000AE
:1005E600E6006608ED003F3021008C00DE308D000D
:1005F60020000D10803022009D0001309E008230C8
:1006060023009E009D011E159F151E128A309B0019
:100616009C019E169D171D16210011122000911295
:10062600111223001F121F102000BC01F801BB018C
:10063600BA018B170B17210091162700940195011B
:1006460096018B152000F001F1016C1107309C001A
:100656007D309B009A0191106430A6000030A700FF
:100666000A30E6006608BD00210091140B178B17AF
:10067600E3309E0001309D0023008C018D01210096
:10068600111320001113C230220097002000EB0145
:100696000A306B0203185D2BEC146B088331EE23D2
:1006A600823101302000E6006608EB070A306B0253
:1006B600031C4F2BEC1007302800970055302500FF
:1006C6009E00FF302800960095012100931020001F
:1006D60093108B31D92382312000B501CB30200015
:1006E600E700EC30E6008430890B772BE60B772B9E
:1006F600E70B772B00008C31532482318F3127276B
:10070600823120006C1C640020006C1D0D106C1DD5
:100716009A2B2100111AEA2BE43000320032890BA1
:10072600902B0032003220000D106C11EA2B8B3119
:10073600ED238231003A0319EA2B8C31D22482311F
:100746002000E6003508E43E860087016608810041
:100756000130E6006608B50708303502031CEA2BAF
:100766000830E6006608B500E4308731B4278231E8
:100776002000E6006608E9006903031DC72B8631E1
:10078600B82682312000CB2B02306906031DCD2B03
:10079600B501EA2BEB01EB0A08306B020318E82BD4
:1007A6006B08E43E860087010108E6006B08FF3E01
:1007B600E43E86008701660881000130E60066088F
:1007C600EB0708306B02031CD32B0130B5028F31C7
:1007D60090278231842B2000CB004B08D83E860020
:1007E60087010108F6007608CA008C31532483314C
:1007F6000630F6007608F20020004B088C313124D2
:100806008331A03E8600013087000030C03F0030B3
:10081600C13FC23FC33F0630F6007608F200200013
:100826004B088C3131248331043EA03E86000130D2
:1008360087000030C03FC13F053020004B0203183F
:100846002F2C4B08003E840088300318013E85009B
:100856000008F6007608F1054B08031D362C250026
:10086600930121001111033020004B06031D3F2C7C
:1008760025009A0121001210083020004B06031DA6
:10088600482C2600930121001312093020004B0644
:10089600031D512C26009A012100931205302000D9
:1008A6004B020318622CF201F20A4B088D31D22555
:1008B6008331F20120004B088E31702683310430DB
:1008C60020004A020318752C05304B020318702CC1
:1008D600F2014B088D31D225833120004B08873138
:1008E6003A270800063020004A06031D7E2C4B08D6
:1008F6008E319A2608000C3020004A06031DA62CCD
:100906004B08163E840088300318013E850012000D
:10091600031D902CBE01BE0A08004B088E31F62638
:100926008331053020004B0203189E2CF2014B0840
:100936008D31D22583310030F200F30020004B08C0
:100946008531D72508000D3020004A06031DCF2C1F
:100956004B08163E840088300318013E85001200BD
:10096600031DB82CBE01BE0A08004B088E31F626C0
:100976008331053020004B020318C62CF2014B08C8
:100986008D31D22583310130F2000030F300200092
:100996004B088531D7250800043020004A06031D80
:1009A600E22C05304B020318DD2CF2014B088D3189
:1009B600D225833120004B088E31F6260800200010
:1009C6004B088E31F62608002000DE010130250294
:1009D600003003192402031CFD2C013025020B30C4
:1009E600031924020318FD2C2408D83E860087012B
:1009F6000108502DA03024062504031D062D2100D4
:100A060062082000502DFA3024062504031D0F2D00
:100A16000130DF000130552DFB3024062504031D6F
:100A2600182D3B30DF006530552DF03024062504A7
:100A3600031D402D1708D9005908E5003108E200CA
:100A46003008E1001608D9005908E3001708D90054
:100A56005908E40065086406031D1D2D6308D900C6
:100A6600DA016508DB00DC015B08DC00DB01590804
:100A76005B04DF005A085C04552DF130240625047A
:100A8600031D4A2D3108E0003008DF00592DF230F1
:100A960024062504031D572D6D08D900DA015908CF
:100AA600DF005A08E000592DDE01DE0A5E08031950
:100AB600602D02308C318D24080020006208D7009A
:100AC6006108D6006008D5005F08D4008F31592729
:100AD60008002000DD01DE01BE0100302502A03045
:100AE6000319240203189A2D2508DB002408DA00CE
:100AF6000430DB36DA0C890B7C2D5A08DC005C08E6
:100B0600DF005F088C3111248531003A0319902DDE
:100B160020005F0886312726080020005F088F31F5
:100B2600C827853120004E08DE004D08C32D103041
:100B360025062404031DA72D8C314224853120006F
:100B46004E08DE004D08C32D240310300319250678
:100B5600031DB52D8C310224853120004E08DE00A0
:100B66004D08C32D02302406103003192506031D37
:100B7600C52D8E314726853176082000DE007508A2
:100B8600DD00C72DBE01BE0A20003E080319CF2D89
:100B960002308C318D24080020005E08D3005D08E9
:100BA600D2008C3179240800F4007408031DEB2D63
:100BB600720873040319E12D0530E22D0430250077
:100BC60093002000AE01AF0111112100111508009C
:100BD60003307406031DFF2D720873040319F52DE7
:100BE6000530F62D043025009A002000AC01AD0139
:100BF600121021001214080008307406031D132E6B
:100C0600720873040319092E05300A2E04302600D3
:100C160093002000AA01AB0113122100131608004D
:100C260009307406031D08007208730403191D2E8B
:100C360005301E2E043026009A002000A801A901C6
:100C460093122100931608002000D800D601D9017E
:100C56005808D83E860087010108D4005408D700FA
:100C66000C305705D4000C305406031D3C2E0630BC
:100C76003D2E0430D4005408D9005908031D472ED0
:100C860002308C318D2408008B31F623863120000A
:100C96005908D40054082100BA0006302000D400B8
:100CA6005408F20058088C31312486312000D500D2
:100CB6005508D70001308500A03057078400003062
:100CC6008700BB3086005908D6008B1300081E002B
:100CD600840AD60B692E8B1720005908033E8E31E5
:100CE600C62608002000CA00FF30CC00FF30CD0029
:100CF60072080319B32E4A08860087014C080106BC
:100D0600CC004D08CD000130F4007408CA07083045
:100D1600F4007408CB004B080319AE2E4C1C9F2E12
:100D26004D08F5004C08F400F536F40C0130740655
:100D3600CC00A0307506A82E4D08F5004C08F4002E
:100D4600F536F40C7408CC007508CD000130CB02E2
:100D56004B08031D912E0130F2027208031D7E2EF0
:100D66004D08F3004C08F20008002000360803196D
:100D7600C22E2100620820003606031D0800A0309E
:100D86000032890BC32E20003703031DCD2E8C3174
:100D960066240800023020003706031DD52E8C314C
:100DA60066240800033020003706031DDD2E84313B
:100DB600E7240800043020003706031DE52E8531A0
:100DC6006C250800053020003706031DED2E8C31FA
:100DD600EC240800063020003706031DF52E81316D
:100DE6007B21080001308C318D240800F60076083E
:100DF6000B3E840088300318013E85000008F3008E
:100E06007308F4007608003E840088300318013E1B
:100E160085000008F3007308F50005307602031814
:100E2600272F7208031D1F2F8B137508F3007308F5
:100E360020008D058B1708008B137408F3007308C8
:100E460020008D048B1708007208031D322F8B13A8
:100E56007508F300730820008C058B1708008B13A8
:100E66007408F300730820008C048B170800F40044
:100E76007408D83E860087010108F2007208F30064
:100E860074080B3E840088300318013E8500000874
:100E9600F2007208F5000530740203185D2F75081C
:100EA600F200720821008D047508F2007208230012
:100EB6008D04672F7508F200720821008C047508EE
:100EC600F200720823008C04220017087306FC390E
:100ED600730697007308031D742FFC3021009E05CE
:100EE6000800033021009E0408002000CA002100EB
:100EF60011132000111321001D141D1420004A088F
:100F0600F400F40DF40D21001D08740683397406EF
:100F16009D000B30F4006230890B8F2FF40B8F2F5E
:100F2600003221009D149D18962F0B30F40062307C
:100F3600890B9B2FF40B9B2F003221009D149D18CB
:100F4600A22F1C08F40074082000CC0021001B0806
:100F5600F40074082000CB004C08F3004B08F200A4
:100F66000800860087011600B6001600B7001600B6
:100F7600A5001600A4001600A3001600A200160085
:100F8600A0001600A1000630F6007608F200E43054
:100F960086317526873173082000D0007208CF008D
:100FA60021085006031DD92F20084F060319DD2FEF
:100FB600D101EC2F2100620820003606031D3608F9
:100FC600031DE82FD101D10AEC2F0230F600760876
:100FD600D100510808002000CC004C08D83E8600FD
:100FE600870106300106031D08004A08CB004B089E
:100FF600F2004C088631F9260800F734FD34EF3448
:10100600BF347F34FE34FD34FB34F734EF34FF3421
:101016000834023410344034803401340234043449
:101026000834103400340134003400340134003400
:101036000034003400340134013409340B340834EC
:0E10460005340634003401340234033404341B
:1017B2008B132000BB01BA018B1708006400800163
:1017C2000131890BE02B00348B120B11FF30210009
:1017D200B400FF30B500080020003B083A060319A8
:1017E200F42B013008000030080021006208F200EA
:1017F2007208B80020003708F20072082100B90010
:101802000800220097161712FC3021009E051D3099
:101812008731782773082000CE007208CD000800B7
:10182200F3007308D83E860087010C300105F200F0
:101832000C307206031D1F2C013008000030080016
:101842002000F9008B31F6238C3101302100BA00DF
:10185200200079082100BB0004308E31C626080022
:10186200F500F401751C392C7208F3007308F407B3
:101872000310F20D0310F50C7508031D332C7408C8
:10188200080022001708FC3902389700FC302100BA
:101892009E051F308731782773082000CE0072081A
:1018A200CD000800F3010A3073020318080020007B
:1018B200C60121005808F20072082000C800C701C2
:1018C2000130F2007208F307542C00302000250288
:1018D2000A30031924020318752C24088D31282597
:1018E2008C318C312124080002308C318D24080087
:1018F2002000D2008B31F6238C3102302100BA0055
:10190200200053082100BB00200052082100BC0027
:1019120005308E31C62608002000D3008B31F62315
:101922008C31200037088038D20052082100B900DB
:1019320020005308D20052082100BA0003308E3131
:10194200C62608008B31F6238C31200025082100A1
:10195200BA00200024082100BB0020002308210037
:10196200BC00200022082100BD0006308E31C626B0
:101972000800F500640023009518BB2C7508F200DE
:10198200F30172089100730892003F30F40074086A
:10199200950515140310151803140030093D13089A
:1019A20008008B31ED238C31003A0319D22C200030
:1019B2003A08203E8600013087000108F2007208D2
:1019C200F3000130F2007208BA0720303A0203181D
:1019D200BA01730808000030200025020A300319FA
:1019E20024020318052D220823040319FA2C0130BE
:1019F200FB2C0030D4005408CA0024088731EE279B
:101A02008C318C31A324080002308C318D240800E3
:101A1200D830F60076082000CA00CB010C304B0209
:101A2200031808004A08860087010108F6007608B4
:101A3200F2004B088D3167258D310130F6007608B2
:101A42002000CA070130F6007608CB070F2DF400FC
:101A5200053074020318302D20000D08322D2000AD
:101A62000C08F2007208F30074080B3E8400883000
:101A72000318013E85000008F2007208F30573089E
:101A82000319452D0130080000300800F4007408E5
:101A92000B3E840088300318013E85000008F200E6
:101AA2007208F5000530740203185A2D20000D0843
:101AB2005C2D20000C087505F2007208F300730813
:101AC200031D652D0030080001300800F5002300D9
:101AD2009518682D7508F300F401730891007408D5
:101AE2009200720893003F30F300730895052000BE
:101AF20003108B1B03148B1323001515553096000E
:101B0200AA309600951415112000031C08008B17AB
:101B12000800F3007308F20072082000B9073C08BD
:101B2200013EF2007208F400203074020318F4013E
:101B3200740878060319992D7308F20020003C08F6
:101B4200403E860001308700720881007408F2006E
:101B52007208BC0021001116080020002308D400DE
:101B62002208D300D5010A3055020318CF2D53089D
:101B72000139D2005208CA0055088731EE278D314B
:101B820001302000D436D30C890BC32D0130D20092
:101B92005208D5070A305502031CB82D8C31A324F4
:101BA2000800F400053074020318F42D72080319BA
:101BB200E72D74080B3E840088300318013E85002F
:101BC2000008F300730824008D0408007408003E26
:101BD200840088300318013E85000008F300730872
:101BE20024008D0508002000BE01BE0A0800200066
:101BF200C0010130F2007208C7070A304702031819
:101C0200C7014708D83E860087010108F200720822
:101C1200C800C601C901B201B3018B12EC12F30173
:101C220006307302031808007308B03E860087016D
:101C320081010130F2007208F307112EF300362EF3
:101C4200CF3020009805412E20001808CF391038D7
:101C52002E2E20001808CF3920389800412E30301F
:101C620020009804F301F30A412E7308023A031983
:101C72002A2E063A0319252E0C3A0319212E302E4C
:101C82007308F20072082000ED0008002000CC0169
:101C9200CD01CE010A304E0203186B2E0130CC3535
:101CA200CD0D890B502E4E08013EFF3A013E0A3EF1
:101CB2008D3128258E312000CA00CB014A08CC0480
:101CC2004B08CD040130CA004A08CE070A304E0242
:101CD200031C4F2E4D08F6004C08F5000800F500D5
:101CE20005307502031808007208031D892E750855
:101CF200003E840088300318013E85000008F3008E
:101D02007308F4008B137408270095058B170800DD
:101D120075080B3E840088300318013E85000008D8
:101D2200F3007308F4008B137408270095048B17D3
:101D32000800F5007508D83E860087010108F20008
:101D42007208F3007508003E840088300318013ED3
:101D520085000008F2007208F400053075020318CD
:101D6200BC2E7408F200720820008D0521008D053A
:101D720023008D0508007408F200720820008C050B
:101D820021008C0523008C0508002000CE003608B7
:101D9200031908004E08F6007608F200B8308631C2
:101DA20075268E3173082000D0007208CF006C15A2
:101DB2000D14D1014E0851020318ED2E5108B83E00
:101DC2008600870101088D318A258E310130F600A7
:101DD20076082000D107DB2E4F088D318A258E31FF
:101DE200200050088D318A250800F50075080B3E49
:101DF200840088300318013E85000008F200720852
:101E0200F3007508003E840088300318013E850007
:101E12000008F2007208F4000530750203181C2F46
:101E22007308F200720821008D047408F20072082F
:101E320023008D0508007308F200720821008C044B
:101E42007408F200720823008C050800003021009B
:101E5200A3000030A2000030A1000030A00000303A
:101E6200A7000030A6000030A5000030A40000301A
:101E7200AB000030AA000030A9000030A8000030FA
:101E8200AF000030AE000030AD000030AC002000EA
:101E9200B001B1019701960198016D088E311F269C
:101EA20020009913111021001114200018140800A9
:101EB200200022032304031D652F5508D300540874
:101EC200D2008C317924080002302000220623043B
:101ED200031D08008B31F6238F3104302000D80017
:101EE20058082100BA0020005708D80058082100DD
:101EF200BB0020005608D80058082100BC00200072
:101F02005508D80058082100BD0020005408D80008
:101F120058082100BE0007308E31C6260800633003
:101F220020004606031DC52F4908031D9B2F8B3138
:101F3200E5238F3106302000CA004A08F200470824
:101F42008C3131248F31A03E2000CB004B08F600AB
:101F5200490A031DB52F7608860001308700FF303D
:101F6200C03FFF30C13FC22F760886000130870094
:101F720081014908CA00760A8600013087004A08B2
:101F820081008D31F82508008D31F82508002000E8
:101F9200D200BE015208D83E860087010108CF0058
:101FA2004F08D100043051020318EC2F5208873138
:101FB2003A278F3120005208203E840088300318CF
:101FC200013E850000088731782773082000CE0083
:101FD2007208CD000800073051020318FB2F520887
:101FE2008D3147252000CF00D0014F08CD00500889
:0E1FF200CE000800FF30CD00FF30CE0008000A
:020000040001F9
:04000E00FAEFFFFF07
:10E000000D00060006000D000600060006000600D2
:10E010000D000D007F00FF00FF00FF00FF00FF006C
:00000001FF
